:020000040000FA
:020000002428B2
:040002000034003492
:080008000B1C0F322700131A34
:10001000FC16131C063220008C180232C420013258
:10002000CD202700FF30130693052000911E0B32D0
:100030000130850020307D078400230019088000EE
:100040007D0A3F39FD0009002100F03099003F3062
:100050008C008830950000309D0000309E000030FC
:100060009F00220003019700220084309D0023009E
:1000700000308C00230000309F009C0167309B0003
:1000800004309E0090309D00270013308C0010300B
:10009000920001309100250010300C163B0000301A
:1000A000AB004130AE000030B0000301AF00A20051
:1000B000A100A800A700AA00A9004E30A600203089
:1000C000A5002730A4001030A300AD01AF17AB1777
:1000D00048308B00210020309100920100309300C5
:1000E0002000910192019301FD01FE01FC01F90143
:1000F000FF013F308C008B170F30EC002030840064
:10010000850103011A00EC0BFD333B002D1C04326A
:100110002D102000FC1209323B00AD1C0632AD1040
:100120007C1B0332FC1C03320C217C1B2A21FB208C
:100130000319EB3320003A3A031DE7330B30EC0090
:100140007E023F39FE000030870050308600FB20E1
:100150001E00EC0BFC335008433A031904324130C3
:100160005006031DD233003085005930840006301C
:10017000EC006C080025510603190332EC0BF9332F
:1001800085286C0807258528203084008501A72153
:10019000791F0800103009210800203084008501F3
:1001A000B121791F08001430092108001E30591CA4
:1001B0001830092108008B13591C0432A001A10139
:1001C000A201A301581C0432A401A501A601A701A4
:1001D0008B1708002000791154187915FF12571851
:1001E000FF16F9135818F9177913591879170800D9
:1001F0000301092108007D087E060319080001306B
:10020000850020307E0784007E0A3F39FE0000080A
:100210000800FB00FC140800FC1A080022217C17CF
:10022000FC1060308400013085007B0811261A0024
:10023000FB0A253A03194421253A031DF633FA0136
:10024000FB01080027001212131221000C122300D8
:100250009E1608002000111E080060307A078400F6
:10026000013085000008031D0B327C1323009E1C07
:10027000FE339E1221000C162700121613120800DE
:1002800023009A00FA0A08007B0811260F3900267D
:10029000860087013E318B1351218B170131FB0AF8
:1002A000080020000430EE004331010E0F393626DD
:1002B000180017000F3936261800EE0BF633080029
:1002C000222187014F3086008E2120000C30EF0064
:1002D00074212000EF0BFC338E217F0882217908E6
:1002E00082218E213521080020000430EE0006080E
:1002F000822120309121170082212000EE0BFB3358
:100300008E2108002000EC006C0E0F39362691215A
:1003100020006C080F393626912108000A309121FF
:100320000D302000111EFD3323009A000800043018
:10033000EC00ED01EE0103100301803B1200ED041F
:100340000106EE04860AEC0BF7336D08080003146F
:100350000301803D840A803D840A803D840A803DFB
:10036000080003100301803B840A803B840A803B21
:10037000840A803B0800BF21033143310800033F5A
:10038000C33F023FC23F013FC13F003FC03F0800A3
:100390007008803F7108813F7208823F7308833F75
:1003A0000800033FF300023FF200013FF100003F6D
:1003B000F0000800DE21D529F001F101F201F3017E
:1003C0000800F401F501F601F70108000430EC0023
:1003D00013008100011B093E0F398100000EF03926
:1003E000001B903E01041E008403EC0BF133080057
:1003F000F01F0800F009F109F209F30903010314E1
:10040000F03DF13DF23DF33D0800FA21F409F50914
:10041000F609F709F43DF53DF63DF73D0800800982
:100420000131800901318009013180093D31030129
:100430000314803D0131803D0131803D0131803D1B
:100440003D310800003FF007013FF13D023FF23D22
:10045000033FF33D08002222443FF43D453FF53D74
:10046000463FF63D473FF73D0800003FF002013FA1
:10047000F13B023FF23B033FF33B0800003FF40235
:10048000013FF53B023FF63B033FF73B0800003FCF
:100490007002013F713B023F723B033F733B080018
:1004A000003F7402013F753B023F763B033F773BC1
:1004B00008000310F30CF20CF10CF00C0800031010
:1004C00062225A2AF70CF60CF50CF40C0800031003
:1004D000F00DF10DF20DF30D080003106822F40D7C
:1004E000F50DF60DF70D0800003F81024131013F87
:1004F000813B4131023F813B4131033F813B7D31B3
:100500000800003F01024131013F013B4131023F00
:10051000013B4131033F013B7D31080003100018CE
:100520000314013203100331800C3F31800C3F3142
:10053000800C3F31800C08000310810D4131810D8A
:100540004131810D4131810D4131810D4131810DAB
:100550004131810D4131810D793108000030870032
:10056000B03086007008C03F7108C13F7208C23FBA
:100570007308C33F0301C43FC53FC63FC73FDC21EB
:10058000E1210800F813F31F0232FA21F817033FA4
:100590008039031908000F22F8150800C222DA2258
:1005A0000301F81D02320F220130F81B013A031D2E
:1005B00005220800AE222030ED00031D01320800A4
:1005C0008E2203182B229C22ED0BFA330800C22244
:1005D000EB22D0220800E121F801003FED00013FAD
:1005E000ED04023FED04033FED04031D02327816D3
:1005F00008002030ED006D225022031C02327014DE
:080600003E22ED0BF833080067
:100A00000B00000043344F345134523456340B0041
:0E0A10000000D628EA286029DB28F828080014
:100C00000B002034243428342C3430343434383439
:100C10003C344034443448344C34A034A434A834F4
:100C2000AC340B0043346F3475346E347434653433
:100C3000723450344934433431342E343134303406
:100C40003A340034433450343A34003443344E346C
:100C50003A34003443343034253430343A340034B8
:100C600043343134253431343A3400340B003034D9
:100C70003134323433343434353436343734383430
:100C800039344134423443344434453446340B001F
:0A0C900020346434633443345034DC
:020000040001F9
:02000E00A43913
:02001000FF1FD0
:00000001FF
