:020000040000FA
:0200000067286F
:040002000034003492
:080008002000131E51321312F7
:100010003B001D1C2E321D10FF1C04322C308400AE
:100020008501612321002030840085012C30860069
:1000300087015123031905326E08031D05329C22E6
:1000400003327F117F10093221005123031D083232
:100050002430860087017923FF173B009D109C14F4
:100060002000A030840085010C1C02326123013283
:100070006B233B009D1C1C329D109C10FF1F0932FE
:10008000FF137F1F06321730BE2220000C08013AF2
:100090008C007F1908323B009B130D307910F91C3E
:1000A000BE22F91F1B217F1E03323B009F177F12C8
:1000B0002000911E0B320130850020307D07840026
:1000C0002300190880007D0A3F39FD000900210046
:1000D000F030990038308C008830950000309D0059
:1000E00000309E0000309F00220003019700220094
:1000F00084309D00230000308C00230000309F00DE
:100100009C0167309B0004309E0090309D002700CA
:1001100010308C00920025000C163B0040309B00F4
:100120000030AB0001309C000301AC0041309E0068
:10013000AE0000309F00A0000301920091009400E7
:10014000930096009500980097009A00990000305F
:10015000B0000301AF00A200A100A800A700AA0000
:10016000A9004E30A6002030A5002730A400103092
:10017000A300AD01AF17AB1740308B00210020303A
:10018000910092011030930020009101920193019F
:10019000FD01FE01FC01F901FF0138308C008B17D5
:1001A0003030EC0020308400850103011A00EC0B94
:1001B000FD3379223B002D1C05322D102700131230
:1001C000292109323B00AD1C0632AD10FC1A033266
:1001D000FC1C0332C122FC1AE022B0220319D928E8
:1001E0003A3A031DD9280B302000EC007E023F393B
:1001F000FE000030870050308600B0221E00EC0B5D
:10020000FC335008593A0319043241305006031D9B
:10021000D928003085005930840020000E30EC00D1
:100220006C080025510603190332EC0BF933D92869
:100230006C080F25D92820000C08FB39791D0438DB
:100240008C00080020000C08FB39791904388C0058
:10025000080020007F1D0800FF1C20324030840071
:1002600085018B233C308400DC23822334308400DE
:100270000124031C0832FF103430840085013C3017
:100280008600870179233C30840085018321A524E1
:1002900030308400822344223F2208007F1C080063
:1002A0003C30840085018B2340308400EF233C30B8
:1002B00084008223343084000124031C0132E333A0
:1002C0007F10791C08007F113B009C1408008701F7
:1002D00038308600A023FF11FF10380839040319B5
:1002E0000800FF14FF1576214422080034308400F2
:1002F00085018B23850138308400A5248501403099
:10030000840082230800F0010F30F3004230F20035
:100310004030F1000800870128308600A023F91A38
:1003200008007F19080085018701283084002430E7
:1003300086008B1379238B170800791B03326D22FB
:1003400003190800F91E9321AC01AD01AE01AF0104
:10035000BC01BD01BE01BF017910F9107F10FB2166
:10036000FF190232343003327621FF14403084000A
:10037000432122217F153B009D019F179B172000E1
:1003800041305006031902323B2237221330BE227D
:100390000800870148308600A0237F190532F91A2A
:1003A00003320C104B1A0C147F134B187F17FC13DD
:1003B0004A18FC17FB21FC1F1032343084008501E1
:1003C0003C308600FF1D08323B24FF107F10031CC9
:1003D000FF1403187F1408007923FF197621832165
:1003E000850134308400A5243030840082234422E7
:1003F000FC1B3F220800B4014808B5004908B600BC
:10040000B7010800703086008701A0237C12F31B1F
:100410007C1620000C18B4232430840085018B1333
:10042000DC238B17F31B06328B1382238B172530AB
:10043000BE220800FF173B009D109C14B4237F1DB3
:10044000EB33FF1BFC33E83320003B223722F91249
:100450005418F916791355187917FF125718FF1603
:10046000791158187915F9115918F91508007912E8
:10047000531879160800F9135218F91708007F1657
:100480003B009C1420000800200032083304031DA8
:100490005C22013030023B00950020000301313B1B
:1004A0003B009600200031363B0094002000300CC9
:1004B0003B00930020000800FF30B000B100B20103
:1004C000B30108008701A03086008B13A0238B178F
:1004D0000800870144308600A02344308400850151
:1004E0002030860087017923200821042204230478
:1004F00008007F19791E080020000C0879060839C9
:10050000031D0800F9147F113B009C141B30BE2210
:1005100008007F113B009C1420000D30BE224130AA
:10052000500603190800F91053187C2252180232A1
:100530001B21080022210800FF1D892A20004008F5
:10054000B4004108B5004208B600B701FF107F149F
:10055000791408000030BE22080020001A23080089
:100560007D087E06031908000130850020307E07D3
:1005700084007E0A3F39FE0000080800FB00FC14DE
:1005800008002700131A0800D822FC16FC1060305F
:100590008400013085007B0813261A00FB0A253AE7
:1005A0000319FA22253A031DF633FA01FB0108006C
:1005B00027001212131221000C1223009E160800AD
:1005C0002000111E080060307A0784000130850089
:1005D0000008031D0B32FC1223009E1CFE339E12EA
:1005E00021000C16270012161312080023009A008F
:1005F000FA0A08007B0813262000EE000F396E1B54
:10060000093E0026860087013E318B130B238B1792
:100610000131FB0A080020000430EE004331010ED6
:100620000F394426180017000F3944261800EE0B26
:10063000F6330800D82287014F3086004823200077
:100640000C30EF002E232000EF0BFC3348237F08F3
:100650003C2379083C234823EB2208002000043087
:10066000EE0006083C2320304B2317003C232000DB
:10067000EE0BFB33482308002000EC006C0E0F3912
:1006800044264B2320006C080F3944264B230800D6
:100690000A304B230D302000111EFD3323009A0039
:1006A00008000430EC00ED01EE0103100301803B73
:1006B0001200ED040106EE04860AEC0BF7336D0818
:1006C000080003140301803D840A803D840A803DB4
:1006D000840A803D080003100301803B840A803BAC
:1006E000840A803B840A803B08007923033143312C
:1006F0000800033FC33F023FC23F013FC13F003FED
:10070000C03F08007008803F7108813F7208823F37
:100710007308833F0800033FF300023FF200013FEC
:10072000F100003FF000080098238F2BF001F10149
:10073000F201F3010800F401F501F601F7010800E8
:100740000430EC0013008100011B093E0F398100C9
:10075000000EF039001B903E01041E008403EC0BD8
:10076000F1330800F01F0800F009F109F209F3095C
:1007700003010314F03DF13DF23DF33D0800B423C5
:10078000F409F509F609F709F43DF53DF63DF73DA5
:100790000800800901318009013180090131800997
:1007A0003D3103010314803D0131803D0131803D25
:1007B0000131803D3D310800003FF007013FF13D30
:1007C000023FF23D033FF33D0800DC23443FF43D8C
:1007D000453FF53D463FF63D473FF73D0800003FAA
:1007E000F002013FF13B023FF23B033FF33B0800C5
:1007F000003FF402013FF53B023FF63B033FF73B6E
:100800000800003F7002013F713B023F723B033F13
:10081000733B0800003F7402013F753B023F763B8B
:10082000033F773B08000310F30CF20CF10CF00CC3
:10083000080003101C24142CF70CF60CF50CF40C17
:1008400008000310F00DF10DF20DF30D0800031078
:100850002224F40DF50DF60DF70D0800003F81027E
:100860004131013F813B4131023F813B4131033FF7
:10087000813B7D310800003F01024131013F013BD6
:100880004131023F013B4131033F013B7D310800D3
:10089000031000180314013203100331800C3F31A0
:1008A000800C3F31800C3F31800C08000310810D1B
:1008B0004131810D4131810D4131810D4131810D38
:1008C0004131810D4131810D4131810D7931080076
:1008D00000308700B03086007008C03F7108C13F0B
:1008E0007208C23F7308C33F0301C43FC53FC63F00
:1008F000C73F96239B230800F813F31F0232B4234B
:10090000F817033F803903190800C923F8150800B8
:100910007C2494240301F81D0232C9230130F81B02
:10092000013A031DBF23080068242030ED00031D99
:100930000132080048240318E5235624ED0BFA334E
:1009400008007C24A5248A2408009B23F801003F8A
:10095000ED00013FED04023FED04033FED04031DF4
:100960000232781608002030ED0027240A24031CE8
:0C09700002327014F823ED0BF83308007D
:100A00000B0000004134423443344434463447340C
:100A10004E344F34503451345334543456340B0024
:100A2000000067299C2A8B29692AC9299D29022A45
:0E0A3000242A622A1A2B892AAD2AAA2A080033
:100C00000B002034243428342C3430343434383439
:100C10003C344034443448344C34A034A434A834F4
:100C2000AC34703474340B00503454345034493480
:100C300043342034563431342E34363431343A345B
:100C4000003459345334253443343A34003459345D
:100C500047343A340034593443343A340034593444
:100C60004C343A34003459345034253430343A3426
:100C7000003459344E34253431343A340034593444
:100C80004E342534473400340B00303431343234A0
:100C900033343434353436343734383439344134F9
:0A0CA00042344334443445344634F2
:020000040001F9
:02000E00A43913
:02001000FF1FD0
:00000001FF
